:020000040800F2
:1000000048040020A1010008A108000829080008F0
:100010009D08000835020008251E000800000000A9
:10002000000000000000000000000000110C0008AB
:100030003902000800000000CD0900080D0D00087D
:10004000BB010008BB010008BB010008BB010008A0
:10005000BB010008BB010008BB010008BB01000890
:10006000BB010008BB010008BB010008BB01000880
:10007000BB010008BB010008BB010008BB01000870
:10008000BB010008BB010008BB010008BB01000860
:10009000BB010008BB010008BB010008BB01000850
:1000A000BB010008BB010008BB010008BB01000840
:1000B000BB010008BB010008BB010008BB01000830
:1000C000BB010008BB010008BB010008BB01000820
:1000D000BB010008ED130008BB010008BB010008CC
:1000E000BB010008BB010008BB010008BB01000800
:1000F000BB010008BB010008BB010008BB010008F0
:10010000BB010008BB010008BB010008BB010008DF
:10011000BB010008BB010008790D0008BB01000805
:10012000BB010008BB010008BB010008BB010008BF
:10013000BB010008BB010008BB010008BB010008AF
:10014000BB010008BB010008BB010008BB0100089F
:10015000BB010008BB010008BB010008BB0100088F
:10016000BB010008BB010008BB010008BB0100087F
:10017000BB010008BB010008BB010008BB0100086F
:10018000BB010008BB010008DFF810D000F02CF81C
:100190000048004771210008AFF3008048040020A8
:1001A0000648804706480047FEE7FEE7FEE7FEE711
:1001B000FEE7FEE7FEE7FEE7FEE7FEE7110D0008BB
:1001C00089010008D2B201E000F8012B491EFBD2E0
:1001D00070470022F6E710B513460A460446194652
:1001E000FFF7F0FF204610BD064C074D06E0E06823
:1001F00040F0010394E8070098471034AC42F6D36E
:10020000FFF7C6FF0C2200082C22000810B5044698
:100210004FF48061014800F0AFFA10BD00140240B5
:1002200010B504464FF40071014800F0A5FA10BD66
:100230000014024000BFFEE7704700002DE9F041C6
:1002400004460D4600260027B046544884421DD07F
:10025000534884421AD05348844217D052488442AB
:1002600014D05248844211D0514884420ED0514893
:1002700084420BD05048844208D05048844205D074
:100280004F48844202D04F48844200D103E0C82145
:100290004DA001F0F1FD288880B200B103E0C92132
:1002A00049A001F0E9FD287940B12879012805D05D
:1002B0002879022802D02879032800D103E0CA2136
:1002C00041A001F0D9FDE87928B1E879012802D0F0
:1002D000E879022800D103E0CB213BA001F0CCFD5E
:1002E000002657E0012000FA06F7286800EA070810
:1002F000B8454ED1206872000321914088432060A8
:1003000028797100884021680843206028790128F5
:1003100002D02879022830D1687940B16879012863
:1003200005D06879022802D06879032800D103E05B
:10033000DD2125A001F0A0FDA068720003219140FD
:100340008843A060687971008840A1680843A06074
:10035000A87910B1A879012800D103E0E4211AA0FE
:1003600001F08AFD61680120B040814361606168ED
:10037000A879B04080B201436160E0687200032157
:1003800091408843E060E87971008840E168084363
:10039000E060761C102EA5D3BDE8F081000002407D
:1003A0000004024000080240000C0240001002401D
:1003B0000014024000180240001C024000200240CD
:1003C00000240240002802402E2E5C2E2E5C6C6918
:1003D000625C46574C49425C7372635C73746D3364
:1003E00032663478785F6770696F2E6300000000B2
:1003F0002DE9F04106460D4614460027B8465448FC
:1004000086421DD0534886421AD05348864217D0A0
:100410005248864214D05248864211D051488642F2
:100420000ED0514886420BD05048864208D05048E2
:10043000864205D04F48864202D04F48864200D1BE
:1004400004E040F242214DA001F016FDEDB1012D76
:100450001BD0022D19D0032D17D0042D15D0052D3A
:1004600013D0062D11D0072D0FD0082D0DD0092D3A
:100470000BD00A2D09D00B2D07D00C2D05D00D2D3A
:1004800003D00E2D01D00F2D00D104E040F2432106
:100490003AA001F0F1FCA4B3092C32D08CB384B3A0
:1004A0007CB374B3012C2CD02BD0022C29D028D0B3
:1004B00027D0032C25D0042C23D022D021D0052CEA
:1004C0001FD01ED0092C1CD0062C1AD0092C18D0F5
:1004D000072C16D015D014D0082C12D011D010D063
:1004E000092C0ED00DD00A2C0BD00AD00B2C08D022
:1004F0000C2C06D005D00D2C03D00F2C01D00C2CC9
:1005000000D104E04FF411711CA001F0B5FC6807A4
:10051000C00E04FA00F7E91006F1200050F821009F
:100520006907CA0E0F2191408843EA1006F12001A5
:1005300041F82200E91006F1200050F8210040EABD
:100540000708E91006F1200040F82180BDE8F0819D
:10055000000002400004024000080240000C02407B
:10056000001002400014024000180240001C02402B
:100570000020024000240240002802402E2E5C2E63
:100580002E5C6C69625C46574C49425C7372635CDA
:1005900073746D3332663478785F6770696F2E6379
:1005A0000000000070B505460C4600262E48854226
:1005B0001DD02E4885421AD02D48854217D02D488F
:1005C000854214D02C48854211D02C4885420ED04B
:1005D0002B4885420BD02B48854208D02A488542BB
:1005E00005D02A48854202D02948854200D104E03E
:1005F00040F2411127A001F03FFC012C25D0022C34
:1006000023D0042C21D0082C1FD0102C1DD0202C3E
:100610001BD0402C19D0802C17D0B4F5807F14D07B
:10062000B4F5007F11D0B4F5806F0ED0B4F5006F33
:100630000BD0B4F5805F08D0B4F5005F05D0B4F5F9
:10064000804F02D0B4F5004F00D104E04FF4A17107
:1006500010A001F011FC2869204008B1012600E03B
:100660000026304670BD0000000002400004024039
:1006700000080240000C024000100240001402403A
:1006800000180240001C02400020024000240240EA
:10069000002802402E2E5C2E2E5C6C69625C465750
:1006A0004C49425C7372635C73746D3332663478A8
:1006B000785F6770696F2E630000000070B50446B4
:1006C0000D46184884421DD0174884421AD0174856
:1006D000844217D01648844214D01648844211D060
:1006E000154884420ED0154884420BD014488442E9
:1006F00008D01448844205D01348844202D01348DD
:10070000844200D104E04FF4CC7111A001F0B4FB9D
:10071000A8B200B104E040F299110DA001F0ACFBC9
:10072000A56170BD000002400004024000080240C4
:10073000000C024000100240001402400018024069
:10074000001C024000200240002402400028024019
:100750002E2E5C2E2E5C6C69625C46574C49425CC6
:100760007372635C73746D3332663478785F67706C
:10077000696F2E630000000070B504460D461548F1
:1007800084421DD0144884421AD01448844217D0A1
:100790001348844214D01348844211D01248844232
:1007A0000ED0124884420BD01148844208D0114820
:1007B000844205D01048844202D01048844200D1BF
:1007C00004E04FF4F6710EA001F056FB606968403A
:1007D000606170BD00000240000402400008024059
:1007E000000C0240001002400014024000180240B9
:1007F000001C024000200240002402400028024069
:100800002E2E5C2E2E5C6C69625C46574C49425C15
:100810007372635C73746D3332663478785F6770BB
:10082000696F2E630000000000BFFEE71CB50121C8
:10083000102000F0CDF81020009000208DF804006A
:1008400001208DF8070002208DF805006946024856
:10085000FFF7F4FC1CBD0000001002401CB5012194
:10086000202000F0B5F84FF4C060009001208DF812
:10087000040000208DF8060001208DF807000220FA
:100880008DF8050069460448FFF7D8FC4FF4C061B5
:100890000148FFF713FF1CBD0014024000BFFEE734
:1008A000704700002DE9F0410446002500270F267F
:1008B000E07810B1E078012800D103E0862122A081
:1008C00001F0DAFA6078102800DA03E087211EA030
:1008D00001F0D2FAA078102800DA03E088211AA0EB
:1008E00001F0CAFAE07818B31E48006800F4E0602E
:1008F000C0F5E060C0F30725C5F10400C7B22E4182
:100900006078B840C5B2A078304005432807050E8E
:10091000154821784554207800F01F0101208840B7
:1009200021784911890001F1E021C1F8000109E0B5
:10093000207800F01F01012088400C4922785211D4
:1009400041F82200BDE8F0812E2E5C2E2E5C6C69F1
:10095000625C46574C49425C7372635C6D697363B9
:100960002E6300000CED00E000E400E080E100E018
:1009700010B50446B4F5E06F0BD0B4F5C06F08D0E5
:10098000B4F5A06F05D0B4F5806F02D0B4F5407F08
:1009900000D103E0722104A001F06EFA094820435F
:1009A0000949086010BD00002E2E5C2E2E5C6C697B
:1009B000625C46574C49425C7372635C6D69736359
:1009C0002E6300000000FA050CED00E07047000007
:1009D00070B504460D461048204008B904B104E043
:1009E00040F634010DA001F047FA0DB1012D00D100
:1009F00004E040F6360109A001F03EFA2DB110489E
:100A0000006820430E49086004E00D480068A043D8
:100A10000B49086070BD000000E80B012E2E5C2E13
:100A20002E5C6C69625C46574C49425C7372635C35
:100A300073746D3332663478785F7263632E63004B
:100A40003038024070B504460D4604F4585008B9D9
:100A500004B104E040F6AB010CA001F00DFA0DB1B9
:100A6000012D00D104E040F6AC0108A001F004FA29
:100A70002DB10F48006820430D49086004E00C4880
:100A80000068A0430A49086070BD00002E2E5C2E4D
:100A90002E5C6C69625C46574C49425C7372635CC5
:100AA00073746D3332663478785F7263632E6300DB
:100AB0004038024070B504460D461048204008B941
:100AC00004B104E040F6DF010DA001F0D5F90DB14D
:100AD000012D00D104E04FF40E6109A001F0CCF922
:100AE0002DB11048006820430E49086004E00D480D
:100AF0000068A0430B49086070BD00000C0008F0BE
:100B00002E2E5C2E2E5C6C69625C46574C49425C12
:100B10007372635C73746D3332663478785F7263BA
:100B2000632E630044380240F0B500210022002407
:100B3000022500260223324F3F6807F00C0121B145
:100B4000042905D0082937D105E02E4F076036E08B
:100B50002D4F076033E02A4F3F1F3F68C7F3805691
:100B6000274F3F1F3F6807F03F036EB1264FB7FB8B
:100B7000F3F7DFF88CC0ACF1040CDCF800C0CCF368
:100B8000881C07FB0CF40CE01E4FB7FBF3F7DFF8F3
:100B900070C0ACF1040CDCF800C0CCF3881C07FB7F
:100BA0000CF4174F3F1F3F68C7F301477F1C7D00C0
:100BB000B4FBF5F7076002E0124F076000BF00BF0B
:100BC0000F4F3F6807F0F0010909104F7A5C076882
:100BD000D74047600A4F3F6807F4E051890A0B4F3E
:100BE0007A5C4768D7408760054F3F6807F46041EB
:100BF000490B064F7A5C4768D740C760F0BD0000DC
:100C0000083802400024F40000127A00000000209E
:100C1000704710B54FF4A060FFF7AAFE10BD0000AA
:100C20000CB50020019000903448006840F48030FA
:100C30003249086000BF3148006800F4003000907D
:100C40000198401C0190009818B90198B0F5A04F88
:100C5000F1D12A48006800F4003010B10120009062
:100C600001E0002000900098012846D12348403040
:100C7000006840F0805021494031086020480068F9
:100C800040F440401E4908601C48083000681B4979
:100C9000083108600846006840F4004008600846D3
:100CA000006840F4A05008601648091F0860081F3B
:100CB000006840F08070091F086000BF0F4800689E
:100CC00000F000700028F9D040F205700E4908606D
:100CD0000A480830006820F003000849083108601D
:100CE0000846006840F00200086000BF0348083072
:100CF000006800F00C000828F8D10CBD0038024054
:100D00000070004008544007003C0240704700005B
:100D100010B51548006840F4700013490860134886
:100D2000006840F001001149086000200F490831B7
:100D300008600E4800680E4908400C4908600D48DC
:100D4000091D0860081F006820F48020091F086042
:100D5000002006490C310860FFF762FF4FF0006089
:100D600001498039086010BD88ED00E0003802407C
:100D7000FFFFF6FE1030002410B50121054800F0F9
:100D800045F910B10120044908700121014800F023
:100D900067F810BD001000401000002070B5044638
:100DA0000D461948844226D0B4F1804F23D017480D
:100DB000844220D0164884421DD0164884421AD05E
:100DC0001548844217D01548844214D014488442F0
:100DD00011D0144884420ED0134884420BD01348DB
:100DE000844208D01248844205D01248844202D07E
:100DF0001148844200D104E040F6B1110FA001F087
:100E00003BF8E843208270BD000001400004004030
:100E100000080040000C004000100040001400409A
:100E200000040140004001400044014000480140EE
:100E300000180040001C0040002000402E2E5C2EB8
:100E40002E5C6C69625C46574C49425C7372635C11
:100E500073746D3332663478785F74696D2E630015
:100E600070B504460D461948844226D0B4F1804F2F
:100E700023D01748844220D0164884421DD01648FB
:100E800084421AD01548844217D01548844214D0A1
:100E90001448844211D0144884420ED0134884422E
:100EA0000BD01348844208D01248844205D012481F
:100EB000844202D01148844200D104E040F6F61189
:100EC0000FA000F0D9FFE843208270BD0000014070
:100ED0000004004000080040000C004000100040EA
:100EE0000014004000040140004001400044014063
:100EF0000048014000180040001C00400020004055
:100F00002E2E5C2E2E5C6C69625C46574C49425C0E
:100F10007372635C73746D3332663478785F7469AE
:100F20006D2E630070B504460D462248844226D0DB
:100F3000B4F1804F23D02048844220D01F488442FF
:100F40001DD01F4884421AD01E48844217D01E4824
:100F5000844214D01D48844211D01D4884420ED0D2
:100F60001C4884420BD01C48844208D01B48844251
:100F700005D01B48844202D01A48844200D104E0C4
:100F80004FF4137118A000F077FF0DB1012D00D1BF
:100F900004E040F24D2114A000F06EFF25B120883E
:100FA00040F00100208004E020884FF6FE710840E8
:100FB000208070BD00000140000400400008004097
:100FC000000C0040001000400014004000040140EC
:100FD000004001400044014000480140001800402A
:100FE000001C0040002000402E2E5C2E2E5C6C6900
:100FF000625C46574C49425C7372635C73746D3338
:1010000032663478785F74696D2E63002DE9F041A3
:1010100004460D4600260027B0462B48844226D0C1
:10102000B4F1804F23D02948844220D028488442FC
:101030001DD0284884421AD02748844217D0274818
:10104000844214D02648844211D0264884420ED0CF
:10105000254884420BD02548844208D02448844245
:1010600005D02448844202D02348844200D104E0C1
:1010700040F6CF1121A000F0FFFE012D0DD0022D72
:101080000BD0042D09D0082D07D0102D05D0202D10
:1010900003D0402D01D0802D00D104E04FF41D611C
:1010A00016A000F0E9FE208A00EA0507A08900EA00
:1010B000050827B1B8F1000F01D0012600E0002695
:1010C0003046BDE8F081000000000140000400400F
:1010D00000080040000C00400010004000140040D8
:1010E000000401400040014000440140004801402C
:1010F00000180040001C0040002000402E2E5C2EF6
:101100002E5C6C69625C46574C49425C7372635C4E
:1011100073746D3332663478785F74696D2E630052
:1011200070B504460D4616462548844226D0B4F1D3
:10113000804F23D02348844220D0234884421DD0AE
:10114000224884421AD02248844217D0214884423F
:1011500014D02148844211D0204884420ED0204827
:1011600084420BD01F48844208D01F48844205D0D7
:101170001E48844202D01E48844200D104E04FF44D
:1011800014611CA000F078FE05F47F4008B905B199
:1011900004E040F6411117A000F06EFE0EB1012EE2
:1011A00000D104E040F6421112A000F065FE1EB12D
:1011B000A0892843A08102E0A089A843A08170BD36
:1011C000000001400004004000080040000C004006
:1011D00000100040001400400004014000400140A5
:1011E000004401400048014000180040001C00403D
:1011F000002000402E2E5C2E2E5C6C69625C4657EF
:101200004C49425C7372635C73746D33326634783C
:10121000785F74696D2E63001FB501211020FFF700
:1012200011FC42F2CF00ADF8040031200290002002
:10123000ADF80600ADF80C0001A90F4800F01EF84B
:1012400001210D48FFF7AAFD012211460A48FFF7C8
:1012500067FF01210848FFF765FE36208DF8000082
:1012600001208DF803008DF801008DF8020068461A
:10127000FFF718FB1FBD00000010004070B50446CA
:101280000D4600264348844226D0B4F1804F23D037
:101290004148844220D0414884421DD04048844285
:1012A0001AD04048844217D03F48844214D03F4867
:1012B000844211D03E4884420ED03E4884420BD036
:1012C0003D48844208D03D48844205D03C48844291
:1012D00002D03C48844200D104E04FF48F713AA020
:1012E00000F0CAFD688858B16888102808D068885E
:1012F000202805D06888402802D06888602800D15E
:1013000004E040F21F1130A000F0B6FD288938B18A
:101310002889B0F5807F03D02889B0F5007F00D1FF
:1013200004E04FF4907128A000F0A6FD268819482B
:1013300084420ED01D4884420BD0B4F1804F08D0B7
:101340001548844205D01548844202D0144884428E
:1013500004D14FF68F7006406888064311488442D6
:1013600007D01148844204D04FF6FF400640288938
:10137000064326806868E062288820850548844204
:1013800002D00A48844201D1A87A20860120A08296
:1013900070BD000000000140000400400008004053
:1013A000000C004000100040001400400004014008
:1013B0000040014000440140004801400018004046
:1013C000001C0040002000402E2E5C2E2E5C6C691C
:1013D000625C46574C49425C7372635C73746D3354
:1013E00032663478785F74696D2E630010B540F210
:1013F00025510C4800F0D6F9012812D1094800F017
:1014000063FCC4B22146074800F0B0FC012C03D1B4
:1014100061020548FFF7B0F940F22551014800F09C
:10142000D7F810BD001001400014024000B587B08D
:1014300001211020FFF73EFB01210846FFF7C8FA03
:101440004FF4C060059002208DF8180000208DF840
:101450001A0001208DF81B0002208DF8190005A943
:101460001F48FEF7EBFE072209211D48FEF7C0FFCB
:1014700007220A211A48FEF7BBFF4FF4E130019022
:101480000020ADF80800ADF80A00ADF80C000C2003
:10149000ADF80E000020ADF8100001A9114800F0D1
:1014A000F7FA01210F4800F019F925208DF8000006
:1014B00002208DF801008DF8020001208DF8030054
:1014C0006846FFF7EFF9012240F22551054800F088
:1014D00029FA4021034800F007F807B000BD0000DA
:1014E000000002400010014070B504460D4624483B
:1014F00084421AD02348844217D02348844214D00F
:101500002248844211D0224884420ED0214884428D
:101510000BD02148844208D02048844205D020487E
:10152000844202D01F48844200D104E040F23C5182
:101530001DA000F0A1FC4FF69F40284008B905B15E
:1015400004E040F23D5118A000F096FC05F4007054
:10155000B0F5007F11D10A48844208D0094884427E
:1015600005D00948844202D00A48844200D104E0F0
:1015700040F242510CA000F07FFCE843208070BD97
:10158000001001400044004000480040004C004072
:10159000005000400014014000780040007C0040F2
:1015A00000180140001C01402E2E5C2E2E5C6C6940
:1015B000625C46574C49425C7372635C73746D3372
:1015C00032663478785F75736172742E6300000040
:1015D0002DE9F04104460D46002600272B488442A1
:1015E0001AD02B48844217D02A48844214D02A4863
:1015F000844211D0294884420ED0294884420BD01D
:101600002848844208D02848844205D0274884428C
:1016100002D02748844200D104E040F2A95125A01D
:1016200000F02AFC40F2266085420BD040F22550A3
:10163000854207D040F64600854203D040F66A1046
:10164000854200D104E040F2AA511AA000F014FC37
:1016500040F66A10854211D10C48844208D00C48EB
:10166000844205D00B48844202D00D48844200D108
:1016700004E040F2AF510FA000F0FEFB2E1201205B
:10168000B04087B2F8432080BDE8F08100100140EF
:101690000044004000480040004C00400050004022
:1016A0000014014000780040007C00400018014018
:1016B000001C01402E2E5C2E2E5C6C69625C46572D
:1016C0004C49425C7372635C73746D333266347878
:1016D000785F75736172742E6300000070B5044604
:1016E0000D461C4884421AD01B48844217D01B4820
:1016F000844214D01A48844211D01A4884420ED031
:10170000194884420BD01948844208D018488442B2
:1017100005D01848844202D01748844200D104E022
:1017200040F2A71115A000F0A7FB0DB1012D00D1CB
:1017300004E04FF4D47111A000F09EFB25B1A08904
:1017400040F40050A08104E0A0894DF6FF710840EC
:10175000A08170BD001001400044004000480040DE
:10176000004C004000500040001401400078004050
:10177000007C004000180140001C01402E2E5C2E11
:101780002E5C6C69625C46574C49425C7372635CC8
:1017900073746D3332663478785F75736172742E4A
:1017A000630000002DE9F04704460D46002700269F
:1017B000B046B146474884421AD04748844217D0C1
:1017C0004648844214D04648844211D04548844259
:1017D0000ED0454884420BD04448844208D0444847
:1017E000844205D04348844202D04348844200D119
:1017F00004E04FF4AC6141A000F03EFB282D27D05F
:1018000040F22770854223D040F2266085421FD0E7
:1018100040F2255085421BD040F22440854217D02B
:1018200040F64600854213D040F66A1085420FD03C
:10183000B5F5587F0CD040F22530854208D0B5F57B
:10184000587F05D0B5F5187F02D0B5F5B07F00D12F
:1018500004E040F2615129A000F00EFB40F66A104E
:10186000854211D11B48844208D01B48844205D0D0
:101870001A48844202D01C48844200D104E040F25D
:1018800066511EA000F0F8FAC5F3421805F01F06D5
:10189000012000FA06F6B8F1010F02D1A089064036
:1018A00007E0B8F1020F02D1208A064001E0A08AC9
:1018B00006402F12012000FA07F7208807401EB1CA
:1018C00017B14FF0010901E04FF000094846BDE8AB
:1018D000F087000000100140004400400048004034
:1018E000004C0040005000400014014000780040CF
:1018F000007C004000180140001C01402E2E5C2E90
:101900002E5C6C69625C46574C49425C7372635C46
:1019100073746D3332663478785F75736172742EC8
:10192000630000002DE9F04704460D4617464FF0CE
:101930000008C246C1460026414884421AD04148A8
:10194000844217D04048844214D04048844211D089
:101950003F4884420ED03F4884420BD03E488442E8
:1019600008D03E48844205D03D48844202D03D48DC
:10197000844200D104E040F2CD413BA000F07CFA6B
:10198000282D19D040F22770854215D040F22660EC
:10199000854211D040F2255085420DD040F22440BE
:1019A000854209D040F64600854205D040F66A10CF
:1019B000854201D0602D00D104E040F2CE412AA042
:1019C00000F05AFA0FB1012F00D104E040F2CF41EC
:1019D00025A000F051FA40F66A10854211D118484E
:1019E000844208D01748844205D01748844202D068
:1019F0001848844200D104E040F2D4411AA000F01B
:101A00003BFA2646C5F3421805F01F0A012000FAEA
:101A10000AF9B8F1010F01D10C3605E0B8F1020F57
:101A200001D1103600E0143627B1306840EA0900D1
:101A3000306003E0306820EA09003060BDE8F087DC
:101A4000001001400044004000480040004C0040AD
:101A5000005000400014014000780040007C00402D
:101A600000180140001C01402E2E5C2E2E5C6C697B
:101A7000625C46574C49425C7372635C73746D33AD
:101A800032663478785F75736172742E630000007B
:101A90002DE9FF4704460D460026B14600BFB0467B
:101AA000744884421AD07448844217D073488442E0
:101AB00014D07348844211D0724884420ED07248C8
:101AC00084420BD07148844208D07148844205D0CA
:101AD0007048844202D07048844200D103E0F7216C
:101AE0006EA000F0C9F9286820B1764928688842BC
:101AF00000D203E0F82169A000F0BEF9A88818B16F
:101B0000A888B0F5805F00D103E0F92163A000F060
:101B1000B3F9E88858B1E888B0F5805F07D0E88865
:101B2000B0F5005F03D0E888B0F5405F00D103E076
:101B3000FA215AA000F0A0F9288938B12889B0F517
:101B4000806F03D02889B0F5C06F00D103E0FB217E
:101B500052A000F091F968894FF6F371084010B96E
:101B6000688900B103E0FC214CA000F085F9A88948
:101B700058B1A889B0F5807F07D0A889B0F5007F5B
:101B800003D0A889B0F5407F00D103E0FD2143A038
:101B900000F072F9A88988B13648844208D03648E6
:101BA000844205D03548844202D03748844200D16F
:101BB00004E04FF4817139A000F05EF9268A26F422
:101BC0004056E88806432682A68941F20C60864387
:101BD000A88829890843698908430643A681A68AFB
:101BE00026F44076A8890643A6826846FEF79CFF45
:101BF0002048844202D02448844202D1DDF80C906F
:101C000001E0DDF80890A08900F4004040B109EB44
:101C1000C90000EB091029684900B0FBF1F707E0A3
:101C200009EBC90000EB091029688900B0FBF1F746
:101C30006420B7FBF0F006013009642101FB107845
:101C4000A08900F4004040B1322000EBC800B0FB96
:101C5000F1F000F00700064308E0322000EB081026
:101C60006421B0FBF1F000F00F0006432681BDE8CF
:101C7000FF87000000100140004400400048004081
:101C8000004C00400050004000140140007800402B
:101C9000007C004000180140001C01402E2E5C2EEC
:101CA0002E5C6C69625C46574C49425C7372635CA3
:101CB00073746D3332663478785F75736172742E25
:101CC00063000000A137A00010B504461348844209
:101CD0001AD01348844217D01248844214D01248B4
:101CE000844211D0114884420ED0114884420BD056
:101CF0001048844208D01048844205D00F488442DE
:101D000002D00F48844200D104E040F239210DA0F6
:101D100000F0B2F8A088C0F3080010BD0010014028
:101D20000044004000480040004C0040005000408B
:101D30000014014000780040007C00400018014081
:101D4000001C01402E2E5C2E2E5C6C69625C465796
:101D50004C49425C7372635C73746D3332663478E1
:101D6000785F75736172742E6300000070B504466D
:101D70000D46184884421AD01748844217D0174895
:101D8000844214D01648844211D0164884420ED0A2
:101D9000154884420BD01548844208D01448844228
:101DA00005D01448844202D01348844200D104E094
:101DB00040F2292111A000F05FF8B5F5007F00DAAC
:101DC00004E040F22A210DA000F056F8C5F3080007
:101DD000A08070BD00100140004400400048004059
:101DE000004C0040005000400014014000780040CA
:101DF000007C004000180140001C01402E2E5C2E8B
:101E00002E5C6C69625C46574C49425C7372635C41
:101E100073746D3332663478785F75736172742EC3
:101E20006300000000BFFEE7014A024900F013B85A
:101E3000552100081800002002E008C8121F08C140
:101E4000002AFAD170477047002001E001C1121F3B
:101E5000002AFBD170472DE9F04116460F46044693
:101E6000002503E03946B047641C6D1C207800282B
:101E7000F8D12846BDE8F08100BFFEE700F10C0371
:101E800043F82120704770B504462079A16888473F
:101E90000546E07800F00700002802DD2088401C9D
:101EA0002080E078B5EBD01F13D0E078C008401C4C
:101EB000E17860F3C501E170C1F3C20003280CDBD7
:101EC000E07865F3C710E070E07820F03800E0704B
:101ED00003E0E07820F03800E070E07800F00700E0
:101EE00006287BD2DFE800F0032652A2EDCCE07892
:101EF000C0F38010E178B0EBD11F15D1A07820F0AD
:101F0000F000A070E06810B12046E168884700202A
:101F10002080A07820F00F00401CA070E07820F016
:101F20000700401CE07004E0A07820F0F000803052
:101F3000A070CBE0E078C0F38010E178B0EBD11F67
:101F400011D0A07820F0F0001030A070206910B1FE
:101F500020462169884700202080E07820F0070093
:101F6000801CE07011E02088C8280EDDA07820F0E9
:101F7000F0005030A070206A10B12046216A8847D6
:101F8000E07820F00700401DE0709FE0E078C0F3AB
:101F90008010E178B0EBD11F21D1A07820F0F000C3
:101FA000A070E06810B12046E1688847A07800F092
:101FB0000F000F2805D0A078401CA17860F3030122
:101FC000A170606910B120466169884700202080B7
:101FD000E07820F00700C01CE07026E071E0208867
:101FE0003C2822DDA07800F00F0001280AD1A0785B
:101FF00020F0F0003030A070A06990B12046A169B7
:1020000088470EE0A07800F00F00022809D1A078E0
:1020100020F0F0004030A070E06910B12046E16986
:102020008847E07820F00700E0704FE0E078C0F3E8
:102030008010E178B0EBD11F19D0A07820F0F0002B
:102040001030A070206910B120462169884720888F
:102050003C2807DA00202080E07820F00700801C70
:10206000E0700CE0E07820F00700E07007E02088E6
:102070003C2804DDE07820F00700401CE07025E0FB
:10208000E078C0F38010E178B0EBD11F0AD1A078DE
:1020900020F0F0006030A070606A88B12046616A6C
:1020A00088470DE0A07820F0F0001030A070206983
:1020B00010B1204621698847E07820F00700E070E1
:1020C00004E0E07820F00700E07000BF00BF70BDC2
:1020D0002DE9F04104460E4617461D462C212046A8
:1020E000FEF777F8A07820F0F0008030A070A660AE
:1020F0002846A1688847E17860F3C711E170E0786D
:1021000067F38610E0702571BDE8F081014609484B
:10211000026805E08A4202D14FF0FF307047926AB0
:10212000002AF7D103480068886202480160002055
:10213000F4E700001400002010B50548046803E02F
:102140002046FFF7A0FEA46A002CF9D110BD0000C4
:102150001400002000BF054A128802F04002002A45
:10216000F9D0C2B2014B9A807047000000100140C4
:10217000FEF74FFDFEF75AFBFEF770FBFFF756F92F
:102180000123002210491148FFF7A2FF104A032142
:102190000E48FFF773FE0F4A05210C48FFF76EFE4D
:1021A0000A48FFF7B3FFFFF737F80BA0FFF73CFE35
:1021B00008E00E480078012804D100200B4908707F
:1021C000FFF7BAFFF5E70000F12100081C0000202E
:1021D000210200080D0200080D0AC4FAB7A2CBCDF7
:1021E000B5C4CFFBCFA2CEAA3A0D0A001000002042
:1021F00010B50446012C04D110210348FEF7D2F992
:1022000010BD0020FCE70000001002402C22000856
:10221000000000201C000000381E000848220008B2
:102220001C0000202C040000481E000800000000D4
:10223000010203040102030406070809000000006C
:08224000000000000000000096
:040000050800018965
:00000001FF
